{
  "address": "0xb2f459263E8Ed5F2E6b0bf65fFf3c614126C9363",
  "abi": [
    {
      "inputs": [],
      "stateMutability": "nonpayable",
      "type": "constructor"
    },
    {
      "anonymous": false,
      "inputs": [
        {
          "indexed": false,
          "internalType": "uint256",
          "name": "adId",
          "type": "uint256"
        },
        {
          "indexed": false,
          "internalType": "address",
          "name": "clientAddress",
          "type": "address"
        },
        {
          "indexed": false,
          "internalType": "string",
          "name": "clientIpfs",
          "type": "string"
        },
        {
          "indexed": false,
          "internalType": "uint256",
          "name": "price",
          "type": "uint256"
        },
        {
          "indexed": false,
          "internalType": "uint256",
          "name": "startTime",
          "type": "uint256"
        },
        {
          "indexed": false,
          "internalType": "uint256",
          "name": "guaranteeTime",
          "type": "uint256"
        },
        {
          "indexed": false,
          "internalType": "uint256",
          "name": "expireTime",
          "type": "uint256"
        }
      ],
      "name": "AdPurchased",
      "type": "event"
    },
    {
      "anonymous": false,
      "inputs": [
        {
          "indexed": false,
          "internalType": "uint256",
          "name": "adId",
          "type": "uint256"
        },
        {
          "indexed": false,
          "internalType": "address",
          "name": "publisher",
          "type": "address"
        },
        {
          "indexed": false,
          "internalType": "string",
          "name": "ipfs",
          "type": "string"
        },
        {
          "indexed": false,
          "internalType": "string",
          "name": "project",
          "type": "string"
        },
        {
          "indexed": false,
          "internalType": "string",
          "name": "network",
          "type": "string"
        },
        {
          "indexed": false,
          "internalType": "string",
          "name": "location",
          "type": "string"
        },
        {
          "indexed": false,
          "internalType": "uint256",
          "name": "x_size",
          "type": "uint256"
        },
        {
          "indexed": false,
          "internalType": "uint256",
          "name": "y_size",
          "type": "uint256"
        },
        {
          "indexed": false,
          "internalType": "uint256",
          "name": "mindate",
          "type": "uint256"
        },
        {
          "indexed": false,
          "internalType": "uint256",
          "name": "maxdate",
          "type": "uint256"
        },
        {
          "indexed": false,
          "internalType": "uint256",
          "name": "dau",
          "type": "uint256"
        },
        {
          "indexed": false,
          "internalType": "uint256",
          "name": "minprice",
          "type": "uint256"
        }
      ],
      "name": "AdRegistered",
      "type": "event"
    },
    {
      "anonymous": false,
      "inputs": [
        {
          "indexed": false,
          "internalType": "uint256",
          "name": "adId",
          "type": "uint256"
        },
        {
          "indexed": false,
          "internalType": "address",
          "name": "clientAddress",
          "type": "address"
        }
      ],
      "name": "ClientAllowed",
      "type": "event"
    },
    {
      "anonymous": false,
      "inputs": [
        {
          "indexed": false,
          "internalType": "uint256",
          "name": "adId",
          "type": "uint256"
        },
        {
          "indexed": false,
          "internalType": "address",
          "name": "clientAddress",
          "type": "address"
        }
      ],
      "name": "ClientDenied",
      "type": "event"
    },
    {
      "anonymous": false,
      "inputs": [
        {
          "indexed": false,
          "internalType": "address",
          "name": "client",
          "type": "address"
        },
        {
          "indexed": false,
          "internalType": "uint256",
          "name": "adId",
          "type": "uint256"
        },
        {
          "indexed": false,
          "internalType": "string",
          "name": "clientIpfs",
          "type": "string"
        },
        {
          "indexed": false,
          "internalType": "string",
          "name": "clientProject",
          "type": "string"
        },
        {
          "indexed": false,
          "internalType": "string",
          "name": "clientDescription",
          "type": "string"
        },
        {
          "indexed": false,
          "internalType": "uint256",
          "name": "paidETH",
          "type": "uint256"
        }
      ],
      "name": "ClientRegistered",
      "type": "event"
    },
    {
      "inputs": [
        {
          "internalType": "uint256",
          "name": "",
          "type": "uint256"
        }
      ],
      "name": "adOn",
      "outputs": [
        {
          "internalType": "uint256",
          "name": "adId",
          "type": "uint256"
        },
        {
          "internalType": "address",
          "name": "clientAddress",
          "type": "address"
        },
        {
          "internalType": "string",
          "name": "clientIpfs",
          "type": "string"
        },
        {
          "internalType": "uint256",
          "name": "adPrice",
          "type": "uint256"
        },
        {
          "internalType": "uint256",
          "name": "startTime",
          "type": "uint256"
        },
        {
          "internalType": "uint256",
          "name": "guaranteeTime",
          "type": "uint256"
        },
        {
          "internalType": "uint256",
          "name": "expireTime",
          "type": "uint256"
        }
      ],
      "stateMutability": "view",
      "type": "function"
    },
    {
      "inputs": [
        {
          "internalType": "uint256",
          "name": "",
          "type": "uint256"
        }
      ],
      "name": "ads",
      "outputs": [
        {
          "internalType": "uint256",
          "name": "adId",
          "type": "uint256"
        },
        {
          "internalType": "address",
          "name": "publisherAddress",
          "type": "address"
        },
        {
          "internalType": "string",
          "name": "publisherIpfs",
          "type": "string"
        },
        {
          "internalType": "string",
          "name": "publisherProject",
          "type": "string"
        },
        {
          "internalType": "string",
          "name": "network",
          "type": "string"
        },
        {
          "internalType": "string",
          "name": "location",
          "type": "string"
        },
        {
          "internalType": "uint256",
          "name": "x_size",
          "type": "uint256"
        },
        {
          "internalType": "uint256",
          "name": "y_size",
          "type": "uint256"
        },
        {
          "internalType": "uint256",
          "name": "mindate",
          "type": "uint256"
        },
        {
          "internalType": "uint256",
          "name": "maxdate",
          "type": "uint256"
        },
        {
          "internalType": "uint256",
          "name": "dau",
          "type": "uint256"
        },
        {
          "internalType": "uint256",
          "name": "minprice",
          "type": "uint256"
        }
      ],
      "stateMutability": "view",
      "type": "function"
    },
    {
      "inputs": [
        {
          "internalType": "uint256",
          "name": "_adId",
          "type": "uint256"
        },
        {
          "internalType": "address",
          "name": "_clientAddress",
          "type": "address"
        }
      ],
      "name": "allowAd",
      "outputs": [],
      "stateMutability": "nonpayable",
      "type": "function"
    },
    {
      "inputs": [
        {
          "internalType": "uint256",
          "name": "_adId",
          "type": "uint256"
        },
        {
          "internalType": "address",
          "name": "_clientAddress",
          "type": "address"
        }
      ],
      "name": "allowOverAd",
      "outputs": [],
      "stateMutability": "nonpayable",
      "type": "function"
    },
    {
      "inputs": [
        {
          "internalType": "uint256",
          "name": "",
          "type": "uint256"
        },
        {
          "internalType": "uint256",
          "name": "",
          "type": "uint256"
        }
      ],
      "name": "clientList",
      "outputs": [
        {
          "internalType": "uint256",
          "name": "adId",
          "type": "uint256"
        },
        {
          "internalType": "address",
          "name": "clientAddress",
          "type": "address"
        },
        {
          "internalType": "string",
          "name": "clientIpfs",
          "type": "string"
        },
        {
          "internalType": "string",
          "name": "clientProject",
          "type": "string"
        },
        {
          "internalType": "string",
          "name": "clientDescription",
          "type": "string"
        },
        {
          "internalType": "uint256",
          "name": "paidETH",
          "type": "uint256"
        }
      ],
      "stateMutability": "view",
      "type": "function"
    },
    {
      "inputs": [
        {
          "internalType": "uint256",
          "name": "_adId",
          "type": "uint256"
        }
      ],
      "name": "getAdInfo",
      "outputs": [
        {
          "components": [
            {
              "internalType": "uint256",
              "name": "adId",
              "type": "uint256"
            },
            {
              "internalType": "address",
              "name": "publisherAddress",
              "type": "address"
            },
            {
              "internalType": "string",
              "name": "publisherIpfs",
              "type": "string"
            },
            {
              "internalType": "string",
              "name": "publisherProject",
              "type": "string"
            },
            {
              "internalType": "string",
              "name": "network",
              "type": "string"
            },
            {
              "internalType": "string",
              "name": "location",
              "type": "string"
            },
            {
              "internalType": "uint256",
              "name": "x_size",
              "type": "uint256"
            },
            {
              "internalType": "uint256",
              "name": "y_size",
              "type": "uint256"
            },
            {
              "internalType": "uint256",
              "name": "mindate",
              "type": "uint256"
            },
            {
              "internalType": "uint256",
              "name": "maxdate",
              "type": "uint256"
            },
            {
              "internalType": "uint256",
              "name": "dau",
              "type": "uint256"
            },
            {
              "internalType": "uint256",
              "name": "minprice",
              "type": "uint256"
            }
          ],
          "internalType": "struct AdManager.adInfo",
          "name": "",
          "type": "tuple"
        }
      ],
      "stateMutability": "view",
      "type": "function"
    },
    {
      "inputs": [
        {
          "internalType": "uint256",
          "name": "_adId",
          "type": "uint256"
        }
      ],
      "name": "getAdStatus",
      "outputs": [
        {
          "components": [
            {
              "internalType": "uint256",
              "name": "adId",
              "type": "uint256"
            },
            {
              "internalType": "address",
              "name": "clientAddress",
              "type": "address"
            },
            {
              "internalType": "string",
              "name": "clientIpfs",
              "type": "string"
            },
            {
              "internalType": "uint256",
              "name": "adPrice",
              "type": "uint256"
            },
            {
              "internalType": "uint256",
              "name": "startTime",
              "type": "uint256"
            },
            {
              "internalType": "uint256",
              "name": "guaranteeTime",
              "type": "uint256"
            },
            {
              "internalType": "uint256",
              "name": "expireTime",
              "type": "uint256"
            }
          ],
          "internalType": "struct AdManager.adStatus",
          "name": "",
          "type": "tuple"
        }
      ],
      "stateMutability": "view",
      "type": "function"
    },
    {
      "inputs": [],
      "name": "getAllAdInfo",
      "outputs": [
        {
          "components": [
            {
              "internalType": "uint256",
              "name": "adId",
              "type": "uint256"
            },
            {
              "internalType": "address",
              "name": "publisherAddress",
              "type": "address"
            },
            {
              "internalType": "string",
              "name": "publisherIpfs",
              "type": "string"
            },
            {
              "internalType": "string",
              "name": "publisherProject",
              "type": "string"
            },
            {
              "internalType": "string",
              "name": "network",
              "type": "string"
            },
            {
              "internalType": "string",
              "name": "location",
              "type": "string"
            },
            {
              "internalType": "uint256",
              "name": "x_size",
              "type": "uint256"
            },
            {
              "internalType": "uint256",
              "name": "y_size",
              "type": "uint256"
            },
            {
              "internalType": "uint256",
              "name": "mindate",
              "type": "uint256"
            },
            {
              "internalType": "uint256",
              "name": "maxdate",
              "type": "uint256"
            },
            {
              "internalType": "uint256",
              "name": "dau",
              "type": "uint256"
            },
            {
              "internalType": "uint256",
              "name": "minprice",
              "type": "uint256"
            }
          ],
          "internalType": "struct AdManager.adInfo[]",
          "name": "",
          "type": "tuple[]"
        }
      ],
      "stateMutability": "view",
      "type": "function"
    },
    {
      "inputs": [
        {
          "internalType": "uint256",
          "name": "_adId",
          "type": "uint256"
        }
      ],
      "name": "getClientInfo",
      "outputs": [
        {
          "components": [
            {
              "internalType": "uint256",
              "name": "adId",
              "type": "uint256"
            },
            {
              "internalType": "address",
              "name": "clientAddress",
              "type": "address"
            },
            {
              "internalType": "string",
              "name": "clientIpfs",
              "type": "string"
            },
            {
              "internalType": "string",
              "name": "clientProject",
              "type": "string"
            },
            {
              "internalType": "string",
              "name": "clientDescription",
              "type": "string"
            },
            {
              "internalType": "uint256",
              "name": "paidETH",
              "type": "uint256"
            }
          ],
          "internalType": "struct AdManager.clientInfo[]",
          "name": "",
          "type": "tuple[]"
        }
      ],
      "stateMutability": "view",
      "type": "function"
    },
    {
      "inputs": [],
      "name": "getClientInfoByPublisher",
      "outputs": [
        {
          "components": [
            {
              "internalType": "uint256",
              "name": "adId",
              "type": "uint256"
            },
            {
              "internalType": "address",
              "name": "clientAddress",
              "type": "address"
            },
            {
              "internalType": "string",
              "name": "clientIpfs",
              "type": "string"
            },
            {
              "internalType": "string",
              "name": "clientProject",
              "type": "string"
            },
            {
              "internalType": "string",
              "name": "clientDescription",
              "type": "string"
            },
            {
              "internalType": "uint256",
              "name": "paidETH",
              "type": "uint256"
            }
          ],
          "internalType": "struct AdManager.clientInfo[]",
          "name": "",
          "type": "tuple[]"
        }
      ],
      "stateMutability": "view",
      "type": "function"
    },
    {
      "inputs": [
        {
          "internalType": "address",
          "name": "",
          "type": "address"
        }
      ],
      "name": "isPublisher",
      "outputs": [
        {
          "internalType": "bool",
          "name": "",
          "type": "bool"
        }
      ],
      "stateMutability": "view",
      "type": "function"
    },
    {
      "inputs": [],
      "name": "owner",
      "outputs": [
        {
          "internalType": "address",
          "name": "",
          "type": "address"
        }
      ],
      "stateMutability": "view",
      "type": "function"
    },
    {
      "inputs": [
        {
          "internalType": "address",
          "name": "",
          "type": "address"
        },
        {
          "internalType": "uint256",
          "name": "",
          "type": "uint256"
        }
      ],
      "name": "publisherId",
      "outputs": [
        {
          "internalType": "uint256",
          "name": "",
          "type": "uint256"
        }
      ],
      "stateMutability": "view",
      "type": "function"
    },
    {
      "inputs": [
        {
          "internalType": "string",
          "name": "_publisherIpfs",
          "type": "string"
        },
        {
          "internalType": "string",
          "name": "_publisherProject",
          "type": "string"
        },
        {
          "internalType": "string",
          "name": "_network",
          "type": "string"
        },
        {
          "internalType": "string",
          "name": "_location",
          "type": "string"
        },
        {
          "internalType": "uint256",
          "name": "_x_size",
          "type": "uint256"
        },
        {
          "internalType": "uint256",
          "name": "_y_size",
          "type": "uint256"
        },
        {
          "internalType": "uint256",
          "name": "_mindate",
          "type": "uint256"
        },
        {
          "internalType": "uint256",
          "name": "_maxdate",
          "type": "uint256"
        },
        {
          "internalType": "uint256",
          "name": "_dau",
          "type": "uint256"
        },
        {
          "internalType": "uint256",
          "name": "_minprice",
          "type": "uint256"
        }
      ],
      "name": "registerAd",
      "outputs": [],
      "stateMutability": "nonpayable",
      "type": "function"
    },
    {
      "inputs": [
        {
          "internalType": "uint256",
          "name": "_adId",
          "type": "uint256"
        },
        {
          "internalType": "string",
          "name": "_clientIpfs",
          "type": "string"
        },
        {
          "internalType": "string",
          "name": "_clientProject",
          "type": "string"
        },
        {
          "internalType": "string",
          "name": "_clientDescription",
          "type": "string"
        }
      ],
      "name": "registerClient",
      "outputs": [],
      "stateMutability": "payable",
      "type": "function"
    },
    {
      "inputs": [
        {
          "internalType": "uint256",
          "name": "_adId",
          "type": "uint256"
        },
        {
          "internalType": "string",
          "name": "_clientIpfs",
          "type": "string"
        },
        {
          "internalType": "string",
          "name": "_clientProject",
          "type": "string"
        },
        {
          "internalType": "string",
          "name": "_clientDescription",
          "type": "string"
        }
      ],
      "name": "registerOverClient",
      "outputs": [],
      "stateMutability": "payable",
      "type": "function"
    },
    {
      "inputs": [
        {
          "internalType": "address",
          "name": "_publisher",
          "type": "address"
        },
        {
          "internalType": "bool",
          "name": "_isActive",
          "type": "bool"
        }
      ],
      "name": "setPublisher",
      "outputs": [],
      "stateMutability": "nonpayable",
      "type": "function"
    }
  ],
  "transactionHash": "0x3890b93794e4ca31397aff9f1ed0cb110ff25257f4cdbc38bd08decaecd56d97",
  "args": [],
  "numDeployments": 1,
  "solcInputHash": "ff656cf62050b719f46e187056973383",
  "bytecode": "0x608060405234801561001057600080fd5b50600080546001600160a01b031916331790556145a9806100326000396000f3fe6080604052600436106100fd5760003560e01c80638da5cb5b11610095578063c14a75f811610064578063c14a75f81461030a578063c527d6231461032c578063c739c2af1461035f578063c9a3149f1461037f578063f7231def1461039457600080fd5b80638da5cb5b14610271578063af79664c146102a9578063b6b6ceb4146102d7578063c0fb36a9146102ea57600080fd5b806341859ac8116100d157806341859ac8146101cf57806345ea43371461020f578063618bb0791461023c57806378a9d4171461025e57600080fd5b8062a220761461010257806311a7a4c01461013857806327171729146101705780633270de271461019d575b600080fd5b34801561010e57600080fd5b5061012261011d366004613a1c565b6103b4565b60405161012f9190613a7b565b60405180910390f35b34801561014457600080fd5b50610158610153366004613a1c565b6104f8565b60405161012f9c9b9a99989796959493929190613ae8565b34801561017c57600080fd5b5061019061018b366004613a1c565b61077c565b60405161012f9190613c5f565b3480156101a957600080fd5b506101bd6101b8366004613c79565b610a49565b60405161012f96959493929190613c9b565b3480156101db57600080fd5b506101ff6101ea366004613d1b565b60056020526000908152604090205460ff1681565b604051901515815260200161012f565b34801561021b57600080fd5b5061022f61022a366004613a1c565b610c41565b60405161012f9190613d36565b34801561024857600080fd5b5061025c610257366004613e03565b610e93565b005b61025c61026c366004613ee2565b610ebe565b34801561027d57600080fd5b50600054610291906001600160a01b031681565b6040516001600160a01b03909116815260200161012f565b3480156102b557600080fd5b506102c96102c4366004613f74565b611550565b60405190815260200161012f565b61025c6102e5366004613ee2565b611581565b3480156102f657600080fd5b5061025c610305366004613f9e565b611a0f565b34801561031657600080fd5b5061031f611c31565b60405161012f9190614082565b34801561033857600080fd5b5061034c610347366004613a1c565b611f8d565b60405161012f97969594939291906140e4565b34801561036b57600080fd5b5061025c61037a366004614134565b61205a565b34801561038b57600080fd5b5061022f6129fc565b3480156103a057600080fd5b5061025c6103af366004614134565b612d7d565b6103fd6040518060e001604052806000815260200160006001600160a01b0316815260200160608152602001600081526020016000815260200160008152602001600081525090565b600082815260046020908152604091829020825160e0810184528154815260018201546001600160a01b031692810192909252600281018054929391929184019161044790614160565b80601f016020809104026020016040519081016040528092919081815260200182805461047390614160565b80156104c05780601f10610495576101008083540402835291602001916104c0565b820191906000526020600020905b8154815290600101906020018083116104a357829003601f168201915b505050505081526020016003820154815260200160048201548152602001600582015481526020016006820154815250509050919050565b60016020819052600091825260409091208054918101546002820180546001600160a01b03909216929161052b90614160565b80601f016020809104026020016040519081016040528092919081815260200182805461055790614160565b80156105a45780601f10610579576101008083540402835291602001916105a4565b820191906000526020600020905b81548152906001019060200180831161058757829003601f168201915b5050505050908060030180546105b990614160565b80601f01602080910402602001604051908101604052809291908181526020018280546105e590614160565b80156106325780601f1061060757610100808354040283529160200191610632565b820191906000526020600020905b81548152906001019060200180831161061557829003601f168201915b50505050509080600401805461064790614160565b80601f016020809104026020016040519081016040528092919081815260200182805461067390614160565b80156106c05780601f10610695576101008083540402835291602001916106c0565b820191906000526020600020905b8154815290600101906020018083116106a357829003601f168201915b5050505050908060050180546106d590614160565b80601f016020809104026020016040519081016040528092919081815260200182805461070190614160565b801561074e5780601f106107235761010080835404028352916020019161074e565b820191906000526020600020905b81548152906001019060200180831161073157829003601f168201915b50505050509080600601549080600701549080600801549080600901549080600a01549080600b015490508c565b61078461395c565b60008281526001602081815260409283902083516101808101855281548152928101546001600160a01b03169183019190915260028101805492939192918401916107ce90614160565b80601f01602080910402602001604051908101604052809291908181526020018280546107fa90614160565b80156108475780601f1061081c57610100808354040283529160200191610847565b820191906000526020600020905b81548152906001019060200180831161082a57829003601f168201915b5050505050815260200160038201805461086090614160565b80601f016020809104026020016040519081016040528092919081815260200182805461088c90614160565b80156108d95780601f106108ae576101008083540402835291602001916108d9565b820191906000526020600020905b8154815290600101906020018083116108bc57829003601f168201915b505050505081526020016004820180546108f290614160565b80601f016020809104026020016040519081016040528092919081815260200182805461091e90614160565b801561096b5780601f106109405761010080835404028352916020019161096b565b820191906000526020600020905b81548152906001019060200180831161094e57829003601f168201915b5050505050815260200160058201805461098490614160565b80601f01602080910402602001604051908101604052809291908181526020018280546109b090614160565b80156109fd5780601f106109d2576101008083540402835291602001916109fd565b820191906000526020600020905b8154815290600101906020018083116109e057829003601f168201915b5050505050815260200160068201548152602001600782015481526020016008820154815260200160098201548152602001600a8201548152602001600b820154815250509050919050565b60036020528160005260406000208181548110610a6557600080fd5b60009182526020909120600690910201805460018201546002830180549295506001600160a01b03909116935090610a9c90614160565b80601f0160208091040260200160405190810160405280929190818152602001828054610ac890614160565b8015610b155780601f10610aea57610100808354040283529160200191610b15565b820191906000526020600020905b815481529060010190602001808311610af857829003601f168201915b505050505090806003018054610b2a90614160565b80601f0160208091040260200160405190810160405280929190818152602001828054610b5690614160565b8015610ba35780601f10610b7857610100808354040283529160200191610ba3565b820191906000526020600020905b815481529060010190602001808311610b8657829003601f168201915b505050505090806004018054610bb890614160565b80601f0160208091040260200160405190810160405280929190818152602001828054610be490614160565b8015610c315780601f10610c0657610100808354040283529160200191610c31565b820191906000526020600020905b815481529060010190602001808311610c1457829003601f168201915b5050505050908060050154905086565b606060036000838152602001908152602001600020805480602002602001604051908101604052809291908181526020016000905b82821015610e885760008481526020908190206040805160c081018252600686029092018054835260018101546001600160a01b03169383019390935260028301805492939291840191610cc990614160565b80601f0160208091040260200160405190810160405280929190818152602001828054610cf590614160565b8015610d425780601f10610d1757610100808354040283529160200191610d42565b820191906000526020600020905b815481529060010190602001808311610d2557829003601f168201915b50505050508152602001600382018054610d5b90614160565b80601f0160208091040260200160405190810160405280929190818152602001828054610d8790614160565b8015610dd45780601f10610da957610100808354040283529160200191610dd4565b820191906000526020600020905b815481529060010190602001808311610db757829003601f168201915b50505050508152602001600482018054610ded90614160565b80601f0160208091040260200160405190810160405280929190818152602001828054610e1990614160565b8015610e665780601f10610e3b57610100808354040283529160200191610e66565b820191906000526020600020905b815481529060010190602001808311610e4957829003601f168201915b5050505050815260200160058201548152505081526020019060010190610c76565b505050509050919050565b6001600160a01b03919091166000908152600560205260409020805460ff1916911515919091179055565b600084815260016020818152604080842081516101808101835281548152938101546001600160a01b03169284019290925260028201805491840191610f0390614160565b80601f0160208091040260200160405190810160405280929190818152602001828054610f2f90614160565b8015610f7c5780601f10610f5157610100808354040283529160200191610f7c565b820191906000526020600020905b815481529060010190602001808311610f5f57829003601f168201915b50505050508152602001600382018054610f9590614160565b80601f0160208091040260200160405190810160405280929190818152602001828054610fc190614160565b801561100e5780601f10610fe35761010080835404028352916020019161100e565b820191906000526020600020905b815481529060010190602001808311610ff157829003601f168201915b5050505050815260200160048201805461102790614160565b80601f016020809104026020016040519081016040528092919081815260200182805461105390614160565b80156110a05780601f10611075576101008083540402835291602001916110a0565b820191906000526020600020905b81548152906001019060200180831161108357829003601f168201915b505050505081526020016005820180546110b990614160565b80601f01602080910402602001604051908101604052809291908181526020018280546110e590614160565b80156111325780601f1061110757610100808354040283529160200191611132565b820191906000526020600020905b81548152906001019060200180831161111557829003601f168201915b5050505050815260200160068201548152602001600782015481526020016008820154815260200160098201548152602001600a8201548152602001600b8201548152505090506000600460008781526020019081526020016000206040518060e0016040529081600082015481526020016001820160009054906101000a90046001600160a01b03166001600160a01b03166001600160a01b031681526020016002820180546111e290614160565b80601f016020809104026020016040519081016040528092919081815260200182805461120e90614160565b801561125b5780601f106112305761010080835404028352916020019161125b565b820191906000526020600020905b81548152906001019060200180831161123e57829003601f168201915b50505091835250506003820154602080830191909152600483015460408301526005830154606083015260069092015460809091015281015190915042906001600160a01b03166112e65760405162461bcd60e51b815260206004820152601060248201526f105908191bd95cdb89dd08195e1a5cdd60821b60448201526064015b60405180910390fd5b808260a0015111156113485760405162461bcd60e51b815260206004820152602560248201527f4d696e696d756d2067756172616e746565642074696d65206861736e27742070604482015264185cdcd95960da1b60648201526084016112dd565b808260c0015110156113b55760405162461bcd60e51b815260206004820152603060248201527f416420616c726561647920657870697265642c2063616c6c207265676973746560448201526f3921b634b2b73a10333ab731ba34b7b760811b60648201526084016112dd565b3460648360600151606e6113c991906141aa565b6113d391906141c7565b111561142d5760405162461bcd60e51b8152602060048201526024808201527f53686f756c64207265676973746572206d6f72652076616c7565207468616e206044820152632b31302560e01b60648201526084016112dd565b6040805160c0810182528881523360208083019182528284018a8152606084018a9052608084018990523460a085015260008c815260038352948520805460018082018355918752929095208451600690930201918255915193810180546001600160a01b0319166001600160a01b0390951694909417909355519091829160028201906114bb9082614238565b50606082015160038201906114d09082614238565b50608082015160048201906114e59082614238565b5060a09182015160059091015560208201518251604080850151606086015160808701519587015192517fc20cb6a356c68d114b1f6af9bec2d12c05a27e5f1a61a57a3015a7151d18d7469661153e96959490916142f8565b60405180910390a15050505050505050565b6006602052816000526040600020818154811061156c57600080fd5b90600052602060002001600091509150505481565b600084815260016020818152604080842081516101808101835281548152938101546001600160a01b031692840192909252600282018054918401916115c690614160565b80601f01602080910402602001604051908101604052809291908181526020018280546115f290614160565b801561163f5780601f106116145761010080835404028352916020019161163f565b820191906000526020600020905b81548152906001019060200180831161162257829003601f168201915b5050505050815260200160038201805461165890614160565b80601f016020809104026020016040519081016040528092919081815260200182805461168490614160565b80156116d15780601f106116a6576101008083540402835291602001916116d1565b820191906000526020600020905b8154815290600101906020018083116116b457829003601f168201915b505050505081526020016004820180546116ea90614160565b80601f016020809104026020016040519081016040528092919081815260200182805461171690614160565b80156117635780601f1061173857610100808354040283529160200191611763565b820191906000526020600020905b81548152906001019060200180831161174657829003601f168201915b5050505050815260200160058201805461177c90614160565b80601f01602080910402602001604051908101604052809291908181526020018280546117a890614160565b80156117f55780601f106117ca576101008083540402835291602001916117f5565b820191906000526020600020905b8154815290600101906020018083116117d857829003601f168201915b5050505050815260200160068201548152602001600782015481526020016008820154815260200160098201548152602001600a8201548152602001600b8201548152505090508061016001513410156118875760405162461bcd60e51b8152602060048201526013602482015272139bdd08195b9bdd59da08115512081cd95b9d606a1b60448201526064016112dd565b60008161016001513461189a919061431f565b905080156118d157604051339082156108fc029083906000818181858888f193505050501580156118cf573d6000803e3d6000fd5b505b60006040518060c00160405280888152602001336001600160a01b031681526020018781526020018681526020018581526020018334611911919061431f565b905260008881526003602090815260408083208054600180820183559185529383902085516006909502019384559184015191830180546001600160a01b0319166001600160a01b03909316929092179091558201519192508291600282019061197b9082614238565b50606082015160038201906119909082614238565b50608082015160048201906119a59082614238565b5060a09182015160059091015560208201518251604080850151606086015160808701519587015192517fc20cb6a356c68d114b1f6af9bec2d12c05a27e5f1a61a57a3015a7151d18d746966119fe96959490916142f8565b60405180910390a150505050505050565b60006002549050604051806101800160405280828152602001336001600160a01b031681526020018c81526020018b81526020018a815260200189815260200188815260200187815260200186815260200185815260200184815260200183815250600160008381526020019081526020016000206000820151816000015560208201518160010160006101000a8154816001600160a01b0302191690836001600160a01b031602179055506040820151816002019081611ad09190614238565b5060608201516003820190611ae59082614238565b5060808201516004820190611afa9082614238565b5060a08201516005820190611b0f9082614238565b5060c0820151600682015560e0820151600782015561010082015160088201556101208201516009820155610140820151600a82015561016090910151600b90910155611b5d336001610e93565b33600090815260066020818152604080842080546001818101835591865283862001869055858552918290529283902080549181015492810154600782015460088301546009840154600a850154600b86015498517f61b4d1c4479eb8b0ef23a3e837ab2dd649a080dfff7b02aadb9ca6ba45e327d499611c07996001600160a01b03169760028101976003820197600483019760059093019691959094929391929091906143af565b60405180910390a160028054906000611c1f83614416565b91905055505050505050505050505050565b6060600060025467ffffffffffffffff811115611c5057611c50613e3f565b604051908082528060200260200182016040528015611c8957816020015b611c7661395c565b815260200190600190039081611c6e5790505b50905060005b600254811015611f875760008181526001602081815260409283902083516101808101855281548152928101546001600160a01b0316918301919091526002810180549293919291840191611ce390614160565b80601f0160208091040260200160405190810160405280929190818152602001828054611d0f90614160565b8015611d5c5780601f10611d3157610100808354040283529160200191611d5c565b820191906000526020600020905b815481529060010190602001808311611d3f57829003601f168201915b50505050508152602001600382018054611d7590614160565b80601f0160208091040260200160405190810160405280929190818152602001828054611da190614160565b8015611dee5780601f10611dc357610100808354040283529160200191611dee565b820191906000526020600020905b815481529060010190602001808311611dd157829003601f168201915b50505050508152602001600482018054611e0790614160565b80601f0160208091040260200160405190810160405280929190818152602001828054611e3390614160565b8015611e805780601f10611e5557610100808354040283529160200191611e80565b820191906000526020600020905b815481529060010190602001808311611e6357829003601f168201915b50505050508152602001600582018054611e9990614160565b80601f0160208091040260200160405190810160405280929190818152602001828054611ec590614160565b8015611f125780601f10611ee757610100808354040283529160200191611f12565b820191906000526020600020905b815481529060010190602001808311611ef557829003601f168201915b5050505050815260200160068201548152602001600782015481526020016008820154815260200160098201548152602001600a8201548152602001600b82015481525050828281518110611f6957611f6961442f565b60200260200101819052508080611f7f90614416565b915050611c8f565b50919050565b60046020526000908152604090208054600182015460028301805492936001600160a01b0390921692611fbf90614160565b80601f0160208091040260200160405190810160405280929190818152602001828054611feb90614160565b80156120385780601f1061200d57610100808354040283529160200191612038565b820191906000526020600020905b81548152906001019060200180831161201b57829003601f168201915b5050505050908060030154908060040154908060050154908060060154905087565b3360009081526005602052604090205460ff166120aa5760405162461bcd60e51b815260206004820152600e60248201526d5075626c6973686572206f6e6c7960901b60448201526064016112dd565b600082815260016020818152604080842081516101808101835281548152938101546001600160a01b031692840192909252600282018054918401916120ef90614160565b80601f016020809104026020016040519081016040528092919081815260200182805461211b90614160565b80156121685780601f1061213d57610100808354040283529160200191612168565b820191906000526020600020905b81548152906001019060200180831161214b57829003601f168201915b5050505050815260200160038201805461218190614160565b80601f01602080910402602001604051908101604052809291908181526020018280546121ad90614160565b80156121fa5780601f106121cf576101008083540402835291602001916121fa565b820191906000526020600020905b8154815290600101906020018083116121dd57829003601f168201915b5050505050815260200160048201805461221390614160565b80601f016020809104026020016040519081016040528092919081815260200182805461223f90614160565b801561228c5780601f106122615761010080835404028352916020019161228c565b820191906000526020600020905b81548152906001019060200180831161226f57829003601f168201915b505050505081526020016005820180546122a590614160565b80601f01602080910402602001604051908101604052809291908181526020018280546122d190614160565b801561231e5780601f106122f35761010080835404028352916020019161231e565b820191906000526020600020905b81548152906001019060200180831161230157829003601f168201915b5050505050815260200160068201548152602001600782015481526020016008820154815260200160098201548152602001600a8201548152602001600b8201548152505090506000600360008581526020019081526020016000209050336001600160a01b031682602001516001600160a01b0316146123d55760405162461bcd60e51b81526020600482015260116024820152702737ba103a343290383ab13634b9b432b960791b60448201526064016112dd565b61010082015142906000906123ed90620151806141aa565b6123f79083614445565b905060008461012001516201518061240f91906141aa565b6124199084614445565b905060005b84548110156129f257866001600160a01b03168582815481106124435761244361442f565b60009182526020909120600160069092020101546001600160a01b03160361282c5760008582815481106124795761247961442f565b90600052602060002090600602016040518060c0016040529081600082015481526020016001820160009054906101000a90046001600160a01b03166001600160a01b03166001600160a01b031681526020016002820180546124db90614160565b80601f016020809104026020016040519081016040528092919081815260200182805461250790614160565b80156125545780601f1061252957610100808354040283529160200191612554565b820191906000526020600020905b81548152906001019060200180831161253757829003601f168201915b5050505050815260200160038201805461256d90614160565b80601f016020809104026020016040519081016040528092919081815260200182805461259990614160565b80156125e65780601f106125bb576101008083540402835291602001916125e6565b820191906000526020600020905b8154815290600101906020018083116125c957829003601f168201915b505050505081526020016004820180546125ff90614160565b80601f016020809104026020016040519081016040528092919081815260200182805461262b90614160565b80156126785780601f1061264d57610100808354040283529160200191612678565b820191906000526020600020905b81548152906001019060200180831161265b57829003601f168201915b50505091835250506005919091015460209091015260a0810151604051919250339181156108fc0291906000818181858888f193505050501580156126c1573d6000803e3d6000fd5b506040805160e0810182528a81526020838101516001600160a01b039081168284019081528585015184860190815260a0808801516060870152608086018c905285018a905260c0850189905260008f81526004909452949092208351815591516001830180546001600160a01b031916919092161790559151909190600282019061274d9082614238565b50606082015181600301556080820151816004015560a0820151816005015560c082015181600601559050507f234a57ef017c4a3fa2513dc151ed0a970a313fe9f8c712363a8638b3168d03a1898784815481106127ad576127ad61442f565b906000526020600020906006020160010160009054906101000a90046001600160a01b03168885815481106127e4576127e461442f565b90600052602060002090600602016002018a61016001518989896040516128119796959493929190614458565b60405180910390a18161282381614416565b9250505061241e565b84818154811061283e5761283e61442f565b906000526020600020906006020160010160009054906101000a90046001600160a01b03166001600160a01b03166108fc8683815481106128815761288161442f565b9060005260206000209060060201600501549081150290604051600060405180830381858888f193505050501580156128be573d6000803e3d6000fd5b50845485906128cf9060019061431f565b815481106128df576128df61442f565b90600052602060002090600602018582815481106128ff576128ff61442f565b60009182526020909120825460069092020190815560018083015490820180546001600160a01b0319166001600160a01b0390921691909117905560028082019061294c90840182614482565b5060038181019061295f90840182614482565b5060048181019061297290840182614482565b50600591820154910155845485908061298d5761298d61455d565b6000828152602081206006600019909301928302018181556001810180546001600160a01b0319169055906129c560028301826139c6565b6129d36003830160006139c6565b6129e16004830160006139c6565b60058201600090555050905561241e565b5050505050505050565b336000908152600660209081526040808320805482518185028101850190935280835260609493830182828015612a5257602002820191906000526020600020905b815481526020019060010190808311612a3e575b505050505090506000815167ffffffffffffffff811115612a7557612a75613e3f565b604051908082528060200260200182016040528015612ae857816020015b612ad56040518060c001604052806000815260200160006001600160a01b03168152602001606081526020016060815260200160608152602001600081525090565b815260200190600190039081612a935790505b50905060005b8251811015612d765760036000848381518110612b0d57612b0d61442f565b602002602001015181526020019081526020016000208181548110612b3457612b3461442f565b90600052602060002090600602016040518060c0016040529081600082015481526020016001820160009054906101000a90046001600160a01b03166001600160a01b03166001600160a01b03168152602001600282018054612b9690614160565b80601f0160208091040260200160405190810160405280929190818152602001828054612bc290614160565b8015612c0f5780601f10612be457610100808354040283529160200191612c0f565b820191906000526020600020905b815481529060010190602001808311612bf257829003601f168201915b50505050508152602001600382018054612c2890614160565b80601f0160208091040260200160405190810160405280929190818152602001828054612c5490614160565b8015612ca15780601f10612c7657610100808354040283529160200191612ca1565b820191906000526020600020905b815481529060010190602001808311612c8457829003601f168201915b50505050508152602001600482018054612cba90614160565b80601f0160208091040260200160405190810160405280929190818152602001828054612ce690614160565b8015612d335780601f10612d0857610100808354040283529160200191612d33565b820191906000526020600020905b815481529060010190602001808311612d1657829003601f168201915b50505050508152602001600582015481525050828281518110612d5857612d5861442f565b60200260200101819052508080612d6e90614416565b915050612aee565b5092915050565b3360009081526005602052604090205460ff16612dcd5760405162461bcd60e51b815260206004820152600e60248201526d5075626c6973686572206f6e6c7960901b60448201526064016112dd565b600082815260016020818152604080842081516101808101835281548152938101546001600160a01b03169284019290925260028201805491840191612e1290614160565b80601f0160208091040260200160405190810160405280929190818152602001828054612e3e90614160565b8015612e8b5780601f10612e6057610100808354040283529160200191612e8b565b820191906000526020600020905b815481529060010190602001808311612e6e57829003601f168201915b50505050508152602001600382018054612ea490614160565b80601f0160208091040260200160405190810160405280929190818152602001828054612ed090614160565b8015612f1d5780601f10612ef257610100808354040283529160200191612f1d565b820191906000526020600020905b815481529060010190602001808311612f0057829003601f168201915b50505050508152602001600482018054612f3690614160565b80601f0160208091040260200160405190810160405280929190818152602001828054612f6290614160565b8015612faf5780601f10612f8457610100808354040283529160200191612faf565b820191906000526020600020905b815481529060010190602001808311612f9257829003601f168201915b50505050508152602001600582018054612fc890614160565b80601f0160208091040260200160405190810160405280929190818152602001828054612ff490614160565b80156130415780601f1061301657610100808354040283529160200191613041565b820191906000526020600020905b81548152906001019060200180831161302457829003601f168201915b5050505050815260200160068201548152602001600782015481526020016008820154815260200160098201548152602001600a8201548152602001600b8201548152505090506000600460008581526020019081526020016000206040518060e0016040529081600082015481526020016001820160009054906101000a90046001600160a01b03166001600160a01b03166001600160a01b031681526020016002820180546130f190614160565b80601f016020809104026020016040519081016040528092919081815260200182805461311d90614160565b801561316a5780601f1061313f5761010080835404028352916020019161316a565b820191906000526020600020905b81548152906001019060200180831161314d57829003601f168201915b5050505050815260200160038201548152602001600482015481526020016005820154815260200160068201548152505090506000600360008681526020019081526020016000209050336001600160a01b031683602001516001600160a01b03161461320d5760405162461bcd60e51b81526020600482015260116024820152702737ba103a343290383ab13634b9b432b960791b60448201526064016112dd565b60208201516001600160a01b031661325a5760405162461bcd60e51b815260206004820152601060248201526f105908191bd95cdb89dd08195e1a5cdd60821b60448201526064016112dd565b610100830151429060009061327290620151806141aa565b61327c9083614445565b905060008561012001516201518061329491906141aa565b61329e9084614445565b905060005b845481101561395157876001600160a01b03168582815481106132c8576132c861442f565b60009182526020909120600160069092020101546001600160a01b0316036136cd5760008582815481106132fe576132fe61442f565b90600052602060002090600602016040518060c0016040529081600082015481526020016001820160009054906101000a90046001600160a01b03166001600160a01b03166001600160a01b0316815260200160028201805461336090614160565b80601f016020809104026020016040519081016040528092919081815260200182805461338c90614160565b80156133d95780601f106133ae576101008083540402835291602001916133d9565b820191906000526020600020905b8154815290600101906020018083116133bc57829003601f168201915b505050505081526020016003820180546133f290614160565b80601f016020809104026020016040519081016040528092919081815260200182805461341e90614160565b801561346b5780601f106134405761010080835404028352916020019161346b565b820191906000526020600020905b81548152906001019060200180831161344e57829003601f168201915b5050505050815260200160048201805461348490614160565b80601f01602080910402602001604051908101604052809291908181526020018280546134b090614160565b80156134fd5780601f106134d2576101008083540402835291602001916134fd565b820191906000526020600020905b8154815290600101906020018083116134e057829003601f168201915b50505091835250506005919091015460209091015260a0810151604051919250339181156108fc0291906000818181858888f19350505050158015613546573d6000803e3d6000fd5b506040518060e001604052808b815260200182602001516001600160a01b03168152602001826040015181526020018260a00151815260200186815260200185815260200184815250600460008c81526020019081526020016000206000820151816000015560208201518160010160006101000a8154816001600160a01b0302191690836001600160a01b0316021790555060408201518160020190816135ee9190614238565b50606082015181600301556080820151816004015560a0820151816005015560c082015181600601559050507f234a57ef017c4a3fa2513dc151ed0a970a313fe9f8c712363a8638b3168d03a18a87848154811061364e5761364e61442f565b906000526020600020906006020160010160009054906101000a90046001600160a01b03168885815481106136855761368561442f565b90600052602060002090600602016002018b61016001518989896040516136b29796959493929190614458565b60405180910390a1816136c481614416565b925050506132a3565b85602001516001600160a01b03168582815481106136ed576136ed61442f565b60009182526020909120600160069092020101546001600160a01b03160361378a5785602001516001600160a01b03166108fc87608001518860c00151613734919061431f565b6080890151613743908861431f565b61374d91906141c7565b886060015161375c91906141aa565b6040518115909202916000818181858888f19350505050158015613784573d6000803e3d6000fd5b5061381e565b84818154811061379c5761379c61442f565b906000526020600020906006020160010160009054906101000a90046001600160a01b03166001600160a01b03166108fc8683815481106137df576137df61442f565b9060005260206000209060060201600501549081150290604051600060405180830381858888f1935050505015801561381c573d6000803e3d6000fd5b505b8454859061382e9060019061431f565b8154811061383e5761383e61442f565b906000526020600020906006020185828154811061385e5761385e61442f565b60009182526020909120825460069092020190815560018083015490820180546001600160a01b0319166001600160a01b039092169190911790556002808201906138ab90840182614482565b506003818101906138be90840182614482565b506004818101906138d190840182614482565b5060059182015491015584548590806138ec576138ec61455d565b6000828152602081206006600019909301928302018181556001810180546001600160a01b03191690559061392460028301826139c6565b6139326003830160006139c6565b6139406004830160006139c6565b6005820160009055505090556132a3565b505050505050505050565b6040518061018001604052806000815260200160006001600160a01b03168152602001606081526020016060815260200160608152602001606081526020016000815260200160008152602001600081526020016000815260200160008152602001600081525090565b5080546139d290614160565b6000825580601f106139e2575050565b601f016020900490600052602060002090810190613a009190613a03565b50565b5b80821115613a185760008155600101613a04565b5090565b600060208284031215613a2e57600080fd5b5035919050565b6000815180845260005b81811015613a5b57602081850181015186830182015201613a3f565b506000602082860101526020601f19601f83011685010191505092915050565b602081528151602082015260018060a01b0360208301511660408201526000604083015160e06060840152613ab4610100840182613a35565b905060608401516080840152608084015160a084015260a084015160c084015260c084015160e08401528091505092915050565b8c81526001600160a01b038c16602082015261018060408201819052600090613b138382018e613a35565b90508281036060840152613b27818d613a35565b90508281036080840152613b3b818c613a35565b905082810360a0840152613b4f818b613a35565b60c0840199909952505060e0810195909552610100850193909352610120840191909152610140830152610160909101529695505050505050565b6000610180825184526020830151613bad60208601826001600160a01b03169052565b506040830151816040860152613bc582860182613a35565b91505060608301518482036060860152613bdf8282613a35565b91505060808301518482036080860152613bf98282613a35565b91505060a083015184820360a0860152613c138282613a35565b60c0858101519087015260e08086015190870152610100808601519087015261012080860151908701526101408086015190870152610160948501519490950193909352509192915050565b602081526000613c726020830184613b8a565b9392505050565b60008060408385031215613c8c57600080fd5b50508035926020909101359150565b8681526001600160a01b038616602082015260c060408201819052600090613cc590830187613a35565b8281036060840152613cd78187613a35565b90508281036080840152613ceb8186613a35565b9150508260a0830152979650505050505050565b80356001600160a01b0381168114613d1657600080fd5b919050565b600060208284031215613d2d57600080fd5b613c7282613cff565b60006020808301818452808551808352604092508286019150828160051b87010184880160005b83811015613df557888303603f19018552815180518452878101516001600160a01b0316888501528681015160c088860181905290613d9e82870182613a35565b91505060608083015186830382880152613db88382613a35565b9250505060808083015186830382880152613dd38382613a35565b60a0948501519790940196909652505094870194925090860190600101613d5d565b509098975050505050505050565b60008060408385031215613e1657600080fd5b613e1f83613cff565b915060208301358015158114613e3457600080fd5b809150509250929050565b634e487b7160e01b600052604160045260246000fd5b600082601f830112613e6657600080fd5b813567ffffffffffffffff80821115613e8157613e81613e3f565b604051601f8301601f19908116603f01168101908282118183101715613ea957613ea9613e3f565b81604052838152866020858801011115613ec257600080fd5b836020870160208301376000602085830101528094505050505092915050565b60008060008060808587031215613ef857600080fd5b84359350602085013567ffffffffffffffff80821115613f1757600080fd5b613f2388838901613e55565b94506040870135915080821115613f3957600080fd5b613f4588838901613e55565b93506060870135915080821115613f5b57600080fd5b50613f6887828801613e55565b91505092959194509250565b60008060408385031215613f8757600080fd5b613f9083613cff565b946020939093013593505050565b6000806000806000806000806000806101408b8d031215613fbe57600080fd5b8a3567ffffffffffffffff80821115613fd657600080fd5b613fe28e838f01613e55565b9b5060208d0135915080821115613ff857600080fd5b6140048e838f01613e55565b9a5060408d013591508082111561401a57600080fd5b6140268e838f01613e55565b995060608d013591508082111561403c57600080fd5b506140498d828e01613e55565b9a9d999c50979a60808101359960a0820135995060c0820135985060e08201359750610100820135965061012090910135945092505050565b6000602080830181845280855180835260408601915060408160051b870101925083870160005b828110156140d757603f198886030184526140c5858351613b8a565b945092850192908501906001016140a9565b5092979650505050505050565b8781526001600160a01b038716602082015260e06040820181905260009061410e90830188613a35565b90508560608301528460808301528360a08301528260c083015298975050505050505050565b6000806040838503121561414757600080fd5b8235915061415760208401613cff565b90509250929050565b600181811c9082168061417457607f821691505b602082108103611f8757634e487b7160e01b600052602260045260246000fd5b634e487b7160e01b600052601160045260246000fd5b80820281158282048414176141c1576141c1614194565b92915050565b6000826141e457634e487b7160e01b600052601260045260246000fd5b500490565b601f82111561423357600081815260208120601f850160051c810160208610156142105750805b601f850160051c820191505b8181101561422f5782815560010161421c565b5050505b505050565b815167ffffffffffffffff81111561425257614252613e3f565b614266816142608454614160565b846141e9565b602080601f83116001811461429b57600084156142835750858301515b600019600386901b1c1916600185901b17855561422f565b600085815260208120601f198616915b828110156142ca578886015182559484019460019091019084016142ab565b50858210156142e85787850151600019600388901b60f8161c191681555b5050505050600190811b01905550565b60018060a01b038716815285602082015260c060408201526000613cc560c0830187613a35565b818103818111156141c1576141c1614194565b6000815461433f81614160565b80855260206001838116801561435c5760018114614376576143a4565b60ff1985168884015283151560051b8801830195506143a4565b866000528260002060005b8581101561439c5781548a8201860152908301908401614381565b890184019650505b505050505092915050565b8c81526001600160a01b038c166020820152610180604082018190526000906143da8382018e614332565b905082810360608401526143ee818d614332565b90508281036080840152614402818c614332565b905082810360a0840152613b4f818b614332565b60006001820161442857614428614194565b5060010190565b634e487b7160e01b600052603260045260246000fd5b808201808211156141c1576141c1614194565b8781526001600160a01b038716602082015260e06040820181905260009061410e90830188614332565b81810361448d575050565b6144978254614160565b67ffffffffffffffff8111156144af576144af613e3f565b6144bd816142608454614160565b6000601f8211600181146144f157600083156144d95750848201545b600019600385901b1c1916600184901b178455614556565b600085815260209020601f19841690600086815260209020845b8381101561452b578286015482556001958601959091019060200161450b565b50858310156145495781850154600019600388901b60f8161c191681555b50505060018360011b0184555b5050505050565b634e487b7160e01b600052603160045260246000fdfea2646970667358221220707666e561332324af45c412e0bd8b4f50e11896714d43de9e7171a32265640964736f6c63430008130033",
  "devdoc": {
    "kind": "dev",
    "methods": {},
    "version": 1
  },
  "userdoc": {
    "kind": "user",
    "methods": {},
    "version": 1
  },
  "storageLayout": {
    "storage": [
      {
        "astId": 59,
        "contract": "src/contracts/AdManager.sol:AdManager",
        "label": "owner",
        "offset": 0,
        "slot": "0",
        "type": "t_address"
      },
      {
        "astId": 64,
        "contract": "src/contracts/AdManager.sol:AdManager",
        "label": "ads",
        "offset": 0,
        "slot": "1",
        "type": "t_mapping(t_uint256,t_struct(adInfo)29_storage)"
      },
      {
        "astId": 66,
        "contract": "src/contracts/AdManager.sol:AdManager",
        "label": "_idCounter",
        "offset": 0,
        "slot": "2",
        "type": "t_uint256"
      },
      {
        "astId": 72,
        "contract": "src/contracts/AdManager.sol:AdManager",
        "label": "clientList",
        "offset": 0,
        "slot": "3",
        "type": "t_mapping(t_uint256,t_array(t_struct(clientInfo)42_storage)dyn_storage)"
      },
      {
        "astId": 77,
        "contract": "src/contracts/AdManager.sol:AdManager",
        "label": "adOn",
        "offset": 0,
        "slot": "4",
        "type": "t_mapping(t_uint256,t_struct(adStatus)57_storage)"
      },
      {
        "astId": 81,
        "contract": "src/contracts/AdManager.sol:AdManager",
        "label": "isPublisher",
        "offset": 0,
        "slot": "5",
        "type": "t_mapping(t_address,t_bool)"
      },
      {
        "astId": 86,
        "contract": "src/contracts/AdManager.sol:AdManager",
        "label": "publisherId",
        "offset": 0,
        "slot": "6",
        "type": "t_mapping(t_address,t_array(t_uint256)dyn_storage)"
      }
    ],
    "types": {
      "t_address": {
        "encoding": "inplace",
        "label": "address",
        "numberOfBytes": "20"
      },
      "t_array(t_struct(clientInfo)42_storage)dyn_storage": {
        "base": "t_struct(clientInfo)42_storage",
        "encoding": "dynamic_array",
        "label": "struct AdManager.clientInfo[]",
        "numberOfBytes": "32"
      },
      "t_array(t_uint256)dyn_storage": {
        "base": "t_uint256",
        "encoding": "dynamic_array",
        "label": "uint256[]",
        "numberOfBytes": "32"
      },
      "t_bool": {
        "encoding": "inplace",
        "label": "bool",
        "numberOfBytes": "1"
      },
      "t_mapping(t_address,t_array(t_uint256)dyn_storage)": {
        "encoding": "mapping",
        "key": "t_address",
        "label": "mapping(address => uint256[])",
        "numberOfBytes": "32",
        "value": "t_array(t_uint256)dyn_storage"
      },
      "t_mapping(t_address,t_bool)": {
        "encoding": "mapping",
        "key": "t_address",
        "label": "mapping(address => bool)",
        "numberOfBytes": "32",
        "value": "t_bool"
      },
      "t_mapping(t_uint256,t_array(t_struct(clientInfo)42_storage)dyn_storage)": {
        "encoding": "mapping",
        "key": "t_uint256",
        "label": "mapping(uint256 => struct AdManager.clientInfo[])",
        "numberOfBytes": "32",
        "value": "t_array(t_struct(clientInfo)42_storage)dyn_storage"
      },
      "t_mapping(t_uint256,t_struct(adInfo)29_storage)": {
        "encoding": "mapping",
        "key": "t_uint256",
        "label": "mapping(uint256 => struct AdManager.adInfo)",
        "numberOfBytes": "32",
        "value": "t_struct(adInfo)29_storage"
      },
      "t_mapping(t_uint256,t_struct(adStatus)57_storage)": {
        "encoding": "mapping",
        "key": "t_uint256",
        "label": "mapping(uint256 => struct AdManager.adStatus)",
        "numberOfBytes": "32",
        "value": "t_struct(adStatus)57_storage"
      },
      "t_string_storage": {
        "encoding": "bytes",
        "label": "string",
        "numberOfBytes": "32"
      },
      "t_struct(adInfo)29_storage": {
        "encoding": "inplace",
        "label": "struct AdManager.adInfo",
        "members": [
          {
            "astId": 6,
            "contract": "src/contracts/AdManager.sol:AdManager",
            "label": "adId",
            "offset": 0,
            "slot": "0",
            "type": "t_uint256"
          },
          {
            "astId": 8,
            "contract": "src/contracts/AdManager.sol:AdManager",
            "label": "publisherAddress",
            "offset": 0,
            "slot": "1",
            "type": "t_address"
          },
          {
            "astId": 10,
            "contract": "src/contracts/AdManager.sol:AdManager",
            "label": "publisherIpfs",
            "offset": 0,
            "slot": "2",
            "type": "t_string_storage"
          },
          {
            "astId": 12,
            "contract": "src/contracts/AdManager.sol:AdManager",
            "label": "publisherProject",
            "offset": 0,
            "slot": "3",
            "type": "t_string_storage"
          },
          {
            "astId": 14,
            "contract": "src/contracts/AdManager.sol:AdManager",
            "label": "network",
            "offset": 0,
            "slot": "4",
            "type": "t_string_storage"
          },
          {
            "astId": 16,
            "contract": "src/contracts/AdManager.sol:AdManager",
            "label": "location",
            "offset": 0,
            "slot": "5",
            "type": "t_string_storage"
          },
          {
            "astId": 18,
            "contract": "src/contracts/AdManager.sol:AdManager",
            "label": "x_size",
            "offset": 0,
            "slot": "6",
            "type": "t_uint256"
          },
          {
            "astId": 20,
            "contract": "src/contracts/AdManager.sol:AdManager",
            "label": "y_size",
            "offset": 0,
            "slot": "7",
            "type": "t_uint256"
          },
          {
            "astId": 22,
            "contract": "src/contracts/AdManager.sol:AdManager",
            "label": "mindate",
            "offset": 0,
            "slot": "8",
            "type": "t_uint256"
          },
          {
            "astId": 24,
            "contract": "src/contracts/AdManager.sol:AdManager",
            "label": "maxdate",
            "offset": 0,
            "slot": "9",
            "type": "t_uint256"
          },
          {
            "astId": 26,
            "contract": "src/contracts/AdManager.sol:AdManager",
            "label": "dau",
            "offset": 0,
            "slot": "10",
            "type": "t_uint256"
          },
          {
            "astId": 28,
            "contract": "src/contracts/AdManager.sol:AdManager",
            "label": "minprice",
            "offset": 0,
            "slot": "11",
            "type": "t_uint256"
          }
        ],
        "numberOfBytes": "384"
      },
      "t_struct(adStatus)57_storage": {
        "encoding": "inplace",
        "label": "struct AdManager.adStatus",
        "members": [
          {
            "astId": 44,
            "contract": "src/contracts/AdManager.sol:AdManager",
            "label": "adId",
            "offset": 0,
            "slot": "0",
            "type": "t_uint256"
          },
          {
            "astId": 46,
            "contract": "src/contracts/AdManager.sol:AdManager",
            "label": "clientAddress",
            "offset": 0,
            "slot": "1",
            "type": "t_address"
          },
          {
            "astId": 48,
            "contract": "src/contracts/AdManager.sol:AdManager",
            "label": "clientIpfs",
            "offset": 0,
            "slot": "2",
            "type": "t_string_storage"
          },
          {
            "astId": 50,
            "contract": "src/contracts/AdManager.sol:AdManager",
            "label": "adPrice",
            "offset": 0,
            "slot": "3",
            "type": "t_uint256"
          },
          {
            "astId": 52,
            "contract": "src/contracts/AdManager.sol:AdManager",
            "label": "startTime",
            "offset": 0,
            "slot": "4",
            "type": "t_uint256"
          },
          {
            "astId": 54,
            "contract": "src/contracts/AdManager.sol:AdManager",
            "label": "guaranteeTime",
            "offset": 0,
            "slot": "5",
            "type": "t_uint256"
          },
          {
            "astId": 56,
            "contract": "src/contracts/AdManager.sol:AdManager",
            "label": "expireTime",
            "offset": 0,
            "slot": "6",
            "type": "t_uint256"
          }
        ],
        "numberOfBytes": "224"
      },
      "t_struct(clientInfo)42_storage": {
        "encoding": "inplace",
        "label": "struct AdManager.clientInfo",
        "members": [
          {
            "astId": 31,
            "contract": "src/contracts/AdManager.sol:AdManager",
            "label": "adId",
            "offset": 0,
            "slot": "0",
            "type": "t_uint256"
          },
          {
            "astId": 33,
            "contract": "src/contracts/AdManager.sol:AdManager",
            "label": "clientAddress",
            "offset": 0,
            "slot": "1",
            "type": "t_address"
          },
          {
            "astId": 35,
            "contract": "src/contracts/AdManager.sol:AdManager",
            "label": "clientIpfs",
            "offset": 0,
            "slot": "2",
            "type": "t_string_storage"
          },
          {
            "astId": 37,
            "contract": "src/contracts/AdManager.sol:AdManager",
            "label": "clientProject",
            "offset": 0,
            "slot": "3",
            "type": "t_string_storage"
          },
          {
            "astId": 39,
            "contract": "src/contracts/AdManager.sol:AdManager",
            "label": "clientDescription",
            "offset": 0,
            "slot": "4",
            "type": "t_string_storage"
          },
          {
            "astId": 41,
            "contract": "src/contracts/AdManager.sol:AdManager",
            "label": "paidETH",
            "offset": 0,
            "slot": "5",
            "type": "t_uint256"
          }
        ],
        "numberOfBytes": "192"
      },
      "t_uint256": {
        "encoding": "inplace",
        "label": "uint256",
        "numberOfBytes": "32"
      }
    }
  }
}